:020000040200F8
:10000000C0C50122251D0202C51B0202211D0202DC
:10001000211D0202211D0202211D0202211D0202D8
:1000200000000000000000000000000069DA01028A
:10003000211D02020000000081DA0102E9DA01025A
:10004000B5E10102E9E00102A1E2010225E30102BA
:100050005DFB010235FD01026DFE010275FF01022B
:1000600051010202E1150202E91202020911020223
:100070009DEE01021DEF01029DEF010281F00102E0
:1000800011F1010291F10102BD050202B5E1010287
:0C009000E9E00102A1E2010225E3010207
:10009C00000000000200000001000000010100004F
:1000AC000230060003301F00013012004D304500B5
:1000BC00AA304500B030FF00B130FF00B230100064
:1000CC00D73010004730000018306000193058004D
:1000DC001A30A10087300200823020003C3008002A
:1000EC003D3018003E3006003F300C0030306200CE
:1000FC00313026003230E60033306E003430EA0006
:10010C003530AE003630A60037306A00153012009C
:10011C001330FD00043102000531FD0006310000F2
:10012C000731FF000833A5001633FF00173300001A
:10013C008730020082302000003313000133D600D8
:10014C000233EF00B8302000B9301700BA30040089
:10015C00BB3008007C301200233009009030C00006
:10016C00073506000A354F000036C4002B3300005B
:10017C002D3345002D3360002F3303000031020076
:10018C000433FC000034000004340200013601008A
:10019C002A3006002B3020000E3032000F302100A8
:1001AC0010302100113001004C3081000236220049
:1001BC001E36000022361800233669002636000051
:1001CC002736F00028360000293626002A36000093
:1001DC002B365F002C36D0002D363C00323610000A
:1001EC003336280003364D004C3604009E30000098
:1001FC002030010021301D002230000023300A0085
:10020C0024300800253018002630060027300C005A
:10021C005F3368006033180061330C0062331200E6
:10022C00633388006433E4000334420088300200F6
:10023C00893080008A3001008B30E0005533040097
:10024C00543301005E332800553304005C33200026
:10025C005D3320006C3000007B3042007D3080002C
:10026C00FFFFFF000230060003301F0001301200B8
:10027C004D304500AA304500B030FF00B130FF00D2
:10028C00B2301000D730100047300000183060003A
:10029C00193058001A30A10087300200823020003B
:1002AC003C3008003D3018003E3006003F300C005A
:1002BC0030306200313026003230E60033306E00D0
:1002CC003430EA003530AE003630A60037306A00E4
:1002DC00153012001330FD00043102000531FD0011
:1002EC00063100000731FF000833A5001633FF006C
:1002FC0017330000873002008230200000331300D7
:10030C000133D6000233EF00B8302000B9301700AB
:10031C00BA300400BB300800073506000A354F0020
:10032C000036C4002B3300002D3345002D33600004
:10033C002F330300003102000433FC0000340000B2
:10034C0004340200013601002A3006002B30200054
:10035C000E3032000F30210010302100113001001E
:10036C004C308100023622001E3600002236180066
:10037C0023366900263600002736F00028360000A8
:10038C00293626002A3600002B365F002C36D0008A
:10039C002D363C00323610003336280003364D0023
:1003AC004C3604009E3000002030010021301D002E
:1003BC002230000023300A002430080025301800B9
:1003CC002630060027300C005F33680060331800BD
:1003DC0061330C007C30100023300A009030C000D8
:1003EC0062331200633388006433E4000334420048
:1003FC0088300200893080008A3001008B30E000A8
:10040C0055330400543301005E33050055330400AA
:10041C005C3310005D3320006C3010007B304000EA
:10042C007D302000FFFFFF0050F5030260F5030252
:10043C006CF5030274F503027CF5030284F50302E8
:10044C0090F5030298F50302A0F50302A8F5030248
:10045C00F7002A005D02F70091012A001007000046
:10046C00002034400028344001010000FD2203022A
:10047C00114A030200000000030000009C630322E9
:10048C00F4030022000000009C6303220464032296
:10049C006C6403220000000000000000000000005B
:1004AC000000000000000000000000000000000040
:1004BC000000000000000000000000000000000030
:1004CC000000000000000000000000000000000020
:1004DC00E064032243000000000000000000000064
:1004EC000000000000000000000000000000000000
:1004FC0000000000430000000000000000000000AD
:10050C0000000000000000000000000000000000DF
:10051C00000000004300000000000000000000008C
:10052C0000000000000000000000000000000000BF
:10053C00000000004300000000000000000000006C
:10054C00000000000000000000000000000000009F
:10055C00000000004300000000000000000000004C
:10056C00000000000000000000000000000000007F
:10057C00000000004300000000000000000000002C
:10058C00000000000000000000000000000000005F
:10059C00000000004300000000000000000000000C
:1005AC00000000000000000000000000000000003F
:1005BC0000000000D9720302B572030200000000B3
:1005CC0018661102B06411029C6411029C64110241
:1005DC009C6411029C6411029C6411029C641102C3
:1005EC009C6411029C6411029C641102FFFFFFFFCA
:1005FC00FFFFFFFFFFFFFFFFFFFF00000100415364
:10060C004349490000000000000000000000000009
:10061C00000000000000000000000000000041533A
:10062C0043494900000000000000000000000000E9
:10063C0000000000000000000000000000000000AE
:08064C00FFFFFFFFFFFFFFFFAE
:100658000348044B834202D0034B03B11847704749
:10066800B8050022B805002200000000064B074923
:10067800C91A891048BF0131491003D0044B0BB186
:1006880001481847704700BFB8050022B805002286
:100698000000000010B5064C237843B9FFF7D8FFD7
:1006A800044B13B10448AFF300800123237010BD3D
:1006B800F0C501220000000084A2000308B5054B24
:1006C8001BB105490548AFF30080BDE80840FFF7B6
:1006D800CDBF00BF00000000F4C5012284A20003C2
:1006E80003783BB94368044AA3F58073B3FA83F3EC
:1006F8005B091370704700BF0CC601222DE9F04159
:100708000746D0E9000186B020F0E8FA0190019E82
:10071800002E35D17A683923D2F884201E4CD2F8BD
:100728000C801E4D07E04FF47A7121F003FAE37D47
:100738000D34FD2B1ED0E27A14F8010CFE2BCDE906
:10074800026605968DF809308DF80A20ADF80C0080
:100758000494E8D0D8F8000002A92E701DF02EFFEE
:100768000190019B83B92B78002BFCD0E37D0D34DD
:10077800FD2BE0D138681FF079FF0190019B1BB970
:10078800019806B0BDE8F081386820F055F8019866
:1007980006B0BDE8F08100BF697703020CC60122EC
:1007A80010B5EFF31082012383F31088124C2368ED
:1007B8001BB9402011490B75087523680133236064
:1007C80082F31088012240F204410D481EF032FDE8
:1007D800EFF31082012383F31088236813B1236891
:1007E800013B236023681BB9802004490B750875F9
:1007F80082F3108810BD00BF98DF0122000D404031
:1008080008D80122704700BF10B5EFF3108201230A
:1008180083F310882B4C23681BB940202A490B7599
:10082800087523680133236082F31088002240F69C
:10083800012110461EF0FEFC4FF47A710A2021F0C7
:1008480079F9012240F6012100201EF0F3FC4FF453
:100858007A710A2021F06EF94FF47A71642021F040
:1008680069F9EFF31082012383F31088236813B129
:100878002368013B236023681BB9802012490B754C
:10088800087582F3108801221421104C10481EF0BC
:10089800D3FE002148F2470000F070FF21460422F1
:1008A80048F2401000F0D6FF94F90040B822A4F1B5
:1008B8003904B4FA84F400216409064835F026F8AE
:1008C800204610BD98DF0122000D4040C8C6012215
:1008D80084D8012210C601222DE9F84F02251626D8
:1008E8000727EC4CDFF8DC8300212046EA4A35F084
:1008F8000DF804F5C0434146C3F8885A40F2351252
:1009080004F5D543E548C3E9006735F0E6F804F592
:10091800E042C2F82C5B1022162604F5F6439A62D0
:1009280008F59C7140F2C122DD485E6235F0D5F8C9
:1009380048F2D0130822E250234443F8046C08F527
:100948007F7104F5004340F26112D648C3F8D451D0
:1009580035F0C3F80B224FF0160A4FF0030B04F5DD
:10096800104704F51543C7F8CC5508F5AC61C3F832
:10097800C820CD4840F2E512C3F8C46035F0ADF8A0
:1009880004F5194308F5E961852207F62410C3E93F
:1009980006ABC7F8205935F0A0F80D2349F6704288
:1009A800C7F8745CA350224442F8046C08F5FA6155
:1009B80040F23D2207F6784035F08FF84FF0160ADE
:1009C8004FF00A0BC7F8C85F40F2B91704F51F4289
:1009D800C2E930AB08F5216102F1CC003A4635F0A6
:1009E8007CF8062104F5204904F52342C9F81C5374
:1009F80056619161AD4808F6CC3140F2091235F0E4
:100A08006CF804F52642C2E91AAB08F6D8413A4612
:100A180009F27460C9F8705635F05FF80A234AF68F
:100A2800C0124FF0160A4FF00B0BC9F8C45908F65C
:100A38009461A350DFF89082224442F8046C09F6CE
:100A4800C8103A4635F049F804F52D4CA8F1A8012C
:100A580040F2E51209F61C50CCE904ABC9F8185D60
:100A680035F03BF80A2304F5304291464FF0160A58
:100A78004FF00A0B93665666D56608F5A0713A469C
:100A88008B4835F02AF804F53342C2E92EAB08F555
:100A98003F713A4609F57170C9F8C05335F01DF831
:100AA8000A234BF21072C9F81457A350224442F893
:100AB800046C08F597613A4609F5E36035F00DF8DE
:100AC80004F53A42C2E918AB08F274613A4609F6ED
:100AD8006C20C9F8685A35F000F80A234FF0160A56
:100AE8004FF0030B04F53D42C9F8BC5DC2F8B46091
:100AF800C2F8B83008F503613A4609F55C6034F08D
:100B0800ECFF04F54142C2E902AB04F54042C2F8E9
:100B1800105108F6EC118522664834F0DEFF0D23EB
:100B28004FF0160A4FF00B0B04F5504904F55842E4
:100B3800C9F85C585665936508F6742140F23D2261
:100B48005D4834F0CAFF04F55B42C2E92AAB08F6F7
:100B5800B44140F2E51209F6B430C9F8B05B34F09C
:100B6800BCFF0B2304F55F42C9F8045F08F69C61DB
:100B780042F8046C136009F6087040F2E51234F08C
:100B8800ACFF4E4B04F56242C2E914ABA3F1740109
:100B980004F5604A40F2E5124948CAF8585234F060
:100BA8009CFF0B2340F28D1B4FF016084FF00909EC
:100BB80004F56542CAF8AC55C2F8A8303F4BC2F8F4
:100BC800A46003F5BA7140F2E5120AF5B66034F094
:100BD80084FF3A4B04F5694C5A4603F557710AF6F7
:100BE80004104CE90289CAF8005934F076FF4EF631
:100BF80050420C234FF016084FF00C09CAF8545C09
:100C0800A3502E4B224442F8046C03F2EC4140F20C
:100C180011220AF6584034F060FF284B04F56F4C57
:100C280003F5E06140F211220AF6AC70CCE928899C
:100C3800CAF8A85F34F051FF03234FF016084FF0AD
:100C48000A0904F5704A04F57242CAF8FC52C2F85F
:100C5800F8301A4BC2F8F46003F61411852204F533
:100C6800734034F03AFF154B04F57642C2E9128915
:100C780003F69C113A460AF25460CAF8505634F00A
:100C88002CFF4FF6A0120B234FF016084FF008095F
:100C9800A3501BE000852068ACA601008CEF2068FB
:100CA80030002168D8062168D01A216820282168D8
:100CB8007035216814462168605D2168809F0302B1
:100CC8005C672168907D0302888E0302EB4B224407
:100CD80042F8046C03F6583140F2E5120AF6A810FF
:100CE800CAF8A45934F0F9FEE44B04F57C4C03F53A
:100CF800546140F261120AF6FC40CCE93C89CAF81A
:100D0800F85C34F0EAFEDD4B4FF0160803F6A461F8
:100D180010234FF00D0904F5803A40F2C122D8485B
:100D2800CAE91163CAF84C5034F0D7FED54904F526
:100D3800813C40F23D220AF569707031CCE9668940
:100D4800CAF8A05334F0C9FE0C234FF016084FF030
:100D58000A09CC4904F58332CAF8F456C2F8EC60A3
:100D6800C2F8F0300AF5DF6040F2112201F52C716B
:100D780034F0B3FEC34904F58532C2E910890AF696
:100D88004C203A4601F2C441CAF8485A34F0A5FE4C
:100D98000D23BC4904F58632CAF89C5D0AF55A60F1
:100DA800C2E9656304F5883A40F23D2201F5D06155
:100DB80034F093FE5346B34943F8F05F3A4601F5E1
:100DC8000C61B14843E9028934F087FE0A224FF0EA
:100DD80016084FF00B0904F58A33CAF84454DE6349
:100DE8001A64A84B3A4603F67C210AF5896034F068
:100DF80074FE04F58B33C3E96489A24B40F2E51213
:100E080003F638410AF29C70CAF8985734F065FE28
:100E18000C229C4BCAF8EC5A03F5626104F58D3339
:100E2800C3F8E8200AF52F6040F21122C3F8E46005
:100E380034F053FE16200D2104F58F33C3E90E015B
:100E480003F14400914B40F23D22A3F1C401CAF8DA
:100E5800405E34F042FE132304F5903ACAE9643543
:100E68008A4B40F2453203F5BE710AF5CC70CAF8D8
:100E78008C6134F032FE04F59233C3E93889834B30
:100E880040F2E51203F2C4410AF2EC40CAF8E85411
:100E980034F023FE0C2104F59433CAF83C58C3E916
:100EA8000D617A4B40F2112203F2AC610AF504603D
:100EB80034F013FE16200A2104F59533C3E96201C4
:100EC80003F5CA70714B3A4603F50C61CAF8905B9A
:100ED80034F003FE0A224FF016084FF0090904F512
:100EE800A03A04F5A133CAF8DC52C3F8D460C3F8B9
:100EF800D820664B3A4603F67C21654834F0EDFD70
:100F080004F5A333C3E90A89604B5A4603F638410E
:100F18000AF23460CAF8305634F0DFFD092204F5CD
:100F2800A433CAF88459C3F87C61C3F88021574BAD
:100F38005A4603F6C8510AF6881034F0CEFD534BD2
:100F48005A4603F6587104F5A63303F1DC00C3E9E9
:100F58003489CAF8D85C34F0C0FD09234FF016086C
:100F68004FF008094B4904F5A83A5A4610394A483F
:100F7800CAF82C50CAF82460CAF8283034F0ADFDFD
:100F8800444904F5A93340F261120AF5617001F58C
:100F9800C071C3E95E89CAF8805334F09EFD092206
:100FA8004FF016084FF00A093A4904F5AB33CAF86E
:100FB800D4560AF5DB60C3F8D02001F539715A46DA
:100FC800C3F8CC6034F089FD324904F5AD333A46B4
:100FD8000AF62C2001F27441C3E90889CAF8285A94
:100FE80034F07BFD032104F5AE33CAF87C5DC3E918
:100FF8005D61284904F5B03A852203F5C07001F512
:10100800C66134F06AFD53464FF016084FF00509E3
:10101800204943F8D05FDD2201F5D7611F4843E935
:10102800028934F05AFD09224FF016084FF00409DE
:10103800184904F5B233CAF824540AF585601A62CF
:1010480001F5F3615A46DE6134F047FD114904F5B4
:10105800B333B1220AF27C7001F62811C3E95C8926
:10106800CAF8785734F039FD0F224FF016084FF0C0
:101078000A0904F5B533CAF8CC5A11E0809F030277
:101088005085216878B00302F495216870C1030285
:10109800E0C7216868D2030230D52168D4E5216809
:1010A800C3F8C460C3F8C820714B40F2952203F618
:1010B800DC110AF52D6034F010FD04F5B733C3E9EF
:1010C800068903F124006A4B3A4603F67441CAF8CC
:1010D800205E34F002FD0A2304F5B83ACAF87031EC
:1010E800634B3A4603F563616248CAF87451CAF81B
:1010F8006C6134F0F2FC5E4B04F5BA32C2E9308917
:1011080003F6EC713A460AF2CC40CAF8C85434F0F7
:10111800E4FC4FF0090C4FF016084FF00609564B47
:1011280004F5BC32CAF81C5803F1B0015661C2F884
:1011380018C00AF502605A4634F0CFFC4E4B04F54D
:10114800BD3C03F5107140F209120AF67430CCE97F
:101158005A89CAF8705B34F0C0FC08224FF01608B0
:101168004FF0070904F5BF33CAF8C45E03F1C8009D
:10117800C3E92F62404B40F2611203F5537134F01A
:10118800ACFC04F5C133C3E904893B4B04F5C03A10
:1011980003F5966140F235123848CAF8185234F00F
:1011A8009CFC09224FF016084FF0090904F5C233D8
:1011B800CAF86C55C3E959622F4B5A4603F5BD610D
:1011C8000AF5AE6034F089FC04F5C433C3E92E890E
:1011D800294B5A4603F5EF610AF6C400CAF8C0580D
:1011E80034F07BFC0F2104F5C633CAF8145CC3E95C
:1011F8000361214B40F2952203F608110AF61840C4
:1012080034F06BFC04F5C733C3E9588903F5B670AD
:10121800194B5A4603F53A61CAF8685F34F05DFC29
:101228000A214FF016084FF0080904F5C9333A4669
:10123800114FC3F8B46004F5C836C6F8BC5204F5BB
:10124800CB34C3F8B8100AF5965007F5536134F05B
:1012580044FC40F2611207F6EC6104F11400C4E9A1
:101268000289C6F8105634F038FC0120BDE8F88F22
:1012780068D2030278F6216860E303021C0722683B
:101288002DE9F04F834689B018461D468A46164612
:1012980034F030FC002840D04FEA0A1A0FFA8AF3DB
:1012A800013D4FF4557ADFF8788007932F1801E055
:1012B800AF4232D015F9014FE3B27E2BF8D80123A3
:1012C8000AFB04F4019308EB0409D9F8043004F18B
:1012D8000C01009358F8043041441A46584605F06A
:1012E800D5FD0C20002338F90410B9F90420059025
:1012F800300100B2079C0490100100B2CDE902044D
:10130800080100B2CDE90030584605F0EDFDD9F8E6
:101318000430AF4233441EB2CCD109B0BDE8F08FDF
:10132800008520682DE9F047204C214D22460021F8
:101338002048D5F8048034F0E9FA22461E4CC2460B
:10134800A14600211D4834F0E1FABAE80F00A9E8E7
:101358000F00DAF80030B8F834C0C9F80030B8F82F
:101368000630B8F80420B8F82AE0ACEB0303AEEB7B
:101378000202C3F3C03101FA83F3C2F3C03101FAA8
:1013880082F204F1140608F15C074FEA620C5B1064
:1013980097E8070086E8070028462146A4F814C005
:1013A800E3820022BDE8F0471FF050BC80820C00A9
:1013B800E44E110200800768D0C60122800214683A
:1013C8000022014B1A707047CDC6012210B50B4A96
:1013D800044613780E2B04D80133DBB20F2B13709D
:1013E80008D00123064A13702278032A04BF054A4D
:1013F800136010BDFFF7D4F9F3E700BFCDC6012293
:10140800CEC60122F0C601220023044A13601368E5
:10141800002BFCD000231360704700BFF0C60122E8
:1014280070B50C4C82B020680BF0B4FA01224FF46E
:10143800F07340F256360849084D09780192206841
:10144800074C1A4605FB014100960CF01BFD02B043
:1014580070BD00BF20D80122F4C6012280820C0092
:10146800008007680E4B70B50E4D18680BF0D0FA67
:101478002B780022B3FA83F35B0993420A4908BF29
:1014880011460A4C0A4E206831442B701FF00CF9A3
:101498002046BDE87040002206491FF0D7BB00BFB8
:1014A80020D80122F4C6012280820C00E44E1102E9
:1014B80000800768D0C6012210B502E0012022F0A2
:1014C8000FFB05F0C7FA0028F8D0064B1C6824B1BA
:1014D800013C1C600124204610BD03481EF012FE8A
:1014E800204610BD0400002210D8012270B5002447
:1014F800002584B04FF4F022002106463248CDE999
:10150800024534F003FA002007F020FE2F4C00219A
:101518000125206007F084FE40F2AC624FF4F073BE
:10152800CDE900252A491A4620680CF0ABFC0021B9
:1015380020680BF0EFFE03220221206806F016FD5A
:101548002946206806F0F0FCFF21206806F0CCFC54
:101558002946206806F04CFD0021206806F068FD49
:1015680020681C4C002106F077FD2368EBB11A4B6C
:101578001868012802D0002004B070BD012E1DD0CB
:101588000322164B1A60FFF71BFF15481EF0BAFD21
:10159800144915481FF006FF0222144B1A6004F084
:1015A80053FF3C2022F09CFAF9E7284600F092F914
:1015B8002060FFF729F9084B1860DAE7FFF7B2FE59
:1015C8000B48FFF79BF8DBE70000006820D80122F2
:1015D80000800768FCC60122F8C601220400002228
:1015E80010D80122B0FE3068C4D8012200C70122F9
:1015F800E44E110210B5084C2068012803D0FFF70B
:1016080075FF002010BDFFF771FF00231846236007
:10161800FFF76CFF002010BD0800002238B55048C5
:101628001DF002FE4F494E481DF0A8FF012164201D
:1016380020F080FA4C4AB2F8243C23F4E063A2F884
:10164800243C92F8503C002BFBD10221B2F8243CF8
:10165800454861F30713A2F8243C90F8503C002B4E
:10166800FBD10522B0F8243C3F4962F30303A0F8FC
:10167800243C91F8503C002BFBD191F8203C3A4A8D
:1016880043F0010381F8203C92F8503C1907C3F35A
:10169800C000F9D492F8003C334960F3051382F88E
:1016A800003C92F8023C43F0010382F8023C92F8B5
:1016B800013C60F3000382F8013C91F8503C002B98
:1016C800FBD14FF40C72284BA1F8482C93F8502CFE
:1016D800D207FBD40525022103244FF0010E4FF059
:1016E800070C4FF46A70D3F8442C65F31242C3F820
:1016F800442CD3F8442C61F30D32C3F8442CD3F8AE
:10170800442C61F34B22C3F8442CD3F8442C42F404
:101718008072C3F8442CD3F8442C64F30202C3F853
:10172800442C93F8402C6EF3010283F8402CB3F854
:10173800142C6CF30F32A3F8142CB3F8142C60F3A8
:101748000B02A3F8142C93F8162C42EA0E0283F825
:10175800162C93F8002C42EA0E0283F8002C38BDB0
:1017680008D80122B0F3030200300040024B02798E
:101778001A70FFF747B800BF0C000022844600B576
:101788008E4683B09CFA9CFC00230322104801A9D2
:10179800ADF804C08DF806E01EF046F998B94FF68A
:1017A800FF730C490870013B0DD00A78002AFAD063
:1017B8000B78012B4FF0000304D018460B7003B0D0
:1017C8005DF804FB0B70012003B05DF804FB00BF5B
:1017D80084D801220C00002230B5044683B00D469F
:1017E80064BA01230222194801A9ADF804401EF089
:1017F8001BF910B1012003B030BD4FF6FF73144C34
:101808002070013BF6D02278002AFAD02378012BE9
:101818004FF0000318D0012229460C4823701DF010
:101828001DFF0028E6D14FF6FF732070013BE1D081
:101838002278002AFAD02378012B4FF0000303D036
:101848001846237003B030BD2370D3E784D8012233
:101858000C00002270B5044682B00D46164664BAE4
:1018680001230222194801A9ADF804401EF0DCF852
:1018780010B1012002B070BD4FF6FF73144C2070F8
:10188800013BF6D020780028FAD02378012B4FF0BE
:10189800000318D0324629460C4823701DF0DEFE9E
:1018A8000028E6D14FF6FF732070013BE1D0227883
:1018B800002AFAD02378012B4FF0000303D01846F2
:1018C800237002B070BD2370D3E700BF84D8012213
:1018D8000C000022002330B5464983B0054646482F
:1018E8008DF806308DF807301EF0EEFC42481EF0E9
:1018F80067FCEFF31082012383F310883F4C2368C1
:101908001BB940203E490B750875236801332360D5
:1019180082F31088012240F204713A481DF08AFCD3
:101928004FF47A71282020F005F9002240F2047162
:1019380034481DF07FFCEFF31082012383F31088F5
:10194800236813B12368013B236023681BB98020F7
:101958002B490B75087582F310882B4801A91DF0D7
:1019680071FE9DF80430002B3FD001223C2126480F
:101978001DF062FE0DF1060143F20A00FFF72CFF8D
:1019880043F20B000DF10701FFF726FF9DF8073022
:10199800A3F14002012A04D94C2B02D0002003B045
:1019A80030BD1A491A481FF027FD7DB94FF6FF755B
:1019B800184C2088A84206D0A178FFF7DFFE34F83B
:1019C800040FA842F8D1012003B030BD4FF6FF75CF
:1019D800114C2088A842F6D0A178FFF7CFFE34F842
:1019E800040FA842F8D10120EEE70C4906481DF083
:1019F800D9FFBAE7FC501102E4D8012298DF01228E
:101A0800000D404008D8012284D80122CC50110290
:101A1800C4D8012210000022D40100229C501102D7
:101A280000232DE9F04FD94A89B013701378002BA1
:101A3800FCD00023D6481370D64A1370C0F88430FF
:101A4800BFF34F8F43F6E076D0F88050C5F34E349D
:101A58006401C5F3C90505F1010E2B464EF001E0FE
:101A680004EA060141EA8372C0F86C22013B0FF0D8
:101A780007C8203C14F1200FEDD1BFF34F8FBFF3FF
:101A88006F8F436913F4803329D1C0F88430BFF3D2
:101A98004F8F43F6E076D0F88050BD48C5F34E34FA
:101AA8006401C5F3C90505F1010E2B464EF001E0AE
:101AB80004EA060141EA8372C0F86022013B0FF094
:101AC80007C8203C14F1200FEDD1BFF34F8F4369B5
:101AD80043F480334361BFF34F8FBFF36F8F00240C
:101AE8004FF07E530121AC4AAC480694029207930A
:101AF8004FF4A07E00234EF001E012F813409DED54
:101B0800067A07EE904AF8EEE77A77EE877A01339D
:101B1800CDED067A0FF00FC801F52071814202F56C
:101B28002072E5D1DDED067ADFED9D6A67EEA67AD3
:101B3800CDED067A9FED9B7ADDED067AF4EEC77A55
:101B4800F1EE10FA40F37B81974B079301209249FD
:101B5800924C4FF4A07E00224EF001E011F81230B2
:101B68009DED077A07EE903AF8EEE77A67EE877A06
:101B7800FDEEE77A17EE903AFF2BA8BFFF2301F896
:101B8800123001320FF017C000F52070A04201F5A5
:101B98002071DED101224FF002084FF0000E4FF005
:101BA800670B9146DFF8F0A1069B0AF1FF34002588
:101BB8004FF4A0777D4BCDF804900393013303EBEA
:101BC800090C582214F80E0014F80830803802FB6B
:101BD80000F6B722803B02FB03F21AF815100BFB44
:101BE80003F9A1EB2626A6EB2222C6260B440144C4
:101BF80006FB00F003EB292301EB20216C4883F35B
:101C0800080382F3080200EA032381F30801D200E3
:101C180015F0010F43EAE10302F4FC6243EA020310
:101C28001CBF0EF1040E08F10408013F2CF8023D18
:101C380005F10105C5D1DDF80490584B09F5207967
:101C480099450AF5207AB2D101235A484FF0020883
:101C5800844600274FF0670B4FF0580A184603993F
:101C68004C4A05911370654600264FF4A07ECDE9D5
:101C7800030C0197B720C627019B029AE15C14F870
:101C8800083080390AFB01FC12F81620803B0BFB58
:101C980003F900FB03F0A2EB2C2C13440A4407FBC6
:101CA80001F1ACEB202003EB292302EB212283F383
:101CB800080380F3080082F3080216F0010F687029
:101CC8002B70AA7006F1010605F1030504D0019BEB
:101CD80008F1040804330193BEF1010ECAD1DDE90D
:101CE800030C029B00F5207003F5207302932B4B25
:101CF800019F98420CF5707CB5D12F4B0599A3F53F
:101D0800F0704FF0280E0A464EF001E0A3F51633A6
:101D1800B2EC107E96EE704BA3F8E041B6EE304B75
:101D2800A3F8C043B6EE704BA3F8A04597EE304B2E
:101D3800A3F8804797EE704BA3F86049B7EE304B95
:101D4800A3F8404BB7EE704BA3F8204D16EE1049A0
:101D58001C8003F570630FF025C8023B834201F530
:101D68002071CED100230A48C0F88430BFF34F8FCA
:101D7800436923F480334361BFF34F8F43F6E07622
:101D8800D0F88050C5F34E3418E000BF04C70122D4
:101D980000ED00E00D000022B1FE3068015802009D
:101DA8000E745A37000066433333333FB0A62E68AB
:101DB80000F8FFFFB0222B688ED126686401C5F3B6
:101DC800C90505F1010E2B464EF001E004EA0601B3
:101DD80041EA8372C0F87422013B0FF007C8203C27
:101DE80014F1200FEDD1BFF34F8FBFF36F8F002396
:101DF800C0F88430BFF34F8F43F6E076D0F88050B8
:101E08005F48C5F34E346401C5F3C90505F1010EF9
:101E18002B464EF001E004EA060141EA8372C0F85D
:101E28006C22013B0FF007C8203C14F1200FEDD1C4
:101E3800BFF34F8FBFF36F8F09B0BDE8F08FDFEDB1
:101E4800517ADDED066AF4EEE76AF1EE10FA09DD83
:101E5800DDED067AF4EEC77AF1EE10FA02D84A4BB5
:101E6800079373E6DFED497A9DED067AB4EEE77ADB
:101E7800F1EE10FA0CDDDFED437A9DED067AB4EE53
:101E8800E77AF1EE10FA03D84FF07E5307935DE638
:101E9800DFED3F7A9DED067AB4EEE77AF1EE10FABF
:101EA8000BDDDFED3A7A9DED067AB4EEE77AF1EED6
:101EB80010FA02D8374B079348E6DFED377A9DEDE5
:101EC800067AB4EEE77AF1EE10FA0CDDDFED307A3F
:101ED8009DED067AB4EEE77AF1EE10FA03D84FF0EA
:101EE8007F53079332E6DFED2D7A9DED067AB4EE47
:101EF800E77AF1EE10FA08DDDFED277A9DED067A34
:101F0800B4EEE77AF1EE10FA36D9DFED257A9DEDD9
:101F1800067AB4EEE77AF1EE10FA0BDDDFED1F7A00
:101F28009DED067AB4EEE77AF1EE10FA02D81D4B71
:101F380007930BE6DFED1C7A9DED067AB4EEE77A9F
:101F4800F1EE10FA0BDDDFED167A9DED067AB4EEB0
:101F5800E77AF1EE10FA02D8144B0793F6E5DFEDB5
:101F6800127A9DED067AB4EEE77AF1EE10FA3FF6B2
:101F7800EDAD0F4B0793E9E50E4B0793E6E500BF80
:101F880000ED00E000003E43CDCC4C3F000016437E
:101F9800000002436666A63F0000C8420000A04257
:101FA800000070429A991940000020420000404009
:101FB800000060406666E63F002230B5036883B0E3
:101FC800DB07019201D403B030BD0F4B0122196821
:101FD8000E4801AB22F00CFC48B1019B3BB14FF01D
:101FE80080520B4B5A60BFF34F8FBFF36F8F0022A5
:101FF8000125084C084B0949094822701D701FF03B
:10200800D1F9257003B030BD04D80122692302023A
:1020180000ED00E004C701220D000022B0FE306888
:10202800C4D8012230B500250146D0E9020283B0A8
:10203800046800950523A4684968A04703B030BD2B
:10204800704700BF704700BF10B582B041B3044667
:102058004368586833F041FD63681A785868012A64
:1020680028D0092A10D11A6B012A2AD01D491E4AE4
:1020780091ED000A11689A68D2E90232009002F0E4
:10208800B9FB012002B010BD184804F0DFFC184865
:1020980004F0DCFC174804F0D9FC002002B010BDA5
:1020A800124804F0D3FC144804F0D0FC114804F0A2
:1020B800CDFCF2E79A680146D2E9023202F01CFB35
:1020C800DFE75A6B002AD1D011680C68002CCDDDEF
:1020D80091ED010A5168034C034A496884ED000AEE
:1020E8001160C8E70CC7012208C70122F4F40302F3
:1020F8001CF5030218F5030200F5030210B50446A7
:102108000C212FF053FD204610BD00BF10B504462A
:1021180010212FF04BFD204610BD00BF10B4034C1A
:102128000272C0E900415DF8044B7047EC3D0402BF
:1021380010B4044CC0E90223C0E900415DF8044B27
:10214800704700BF003E0402004870479803002211
:102158000A207047704700BF704700BF704700BF34
:10216800202903462AD0D0F8C80030B39A69914292
:1021780026D0012822D05A6B914228D002281DD09F
:102188001A6D914225D0032818D0DA6E914222D0D8
:10219800042813D0D3F8882091421ED005280DD0EA
:1021A800D3F8A42091421AD0062807D0D3F8C0202B
:1021B80000208A4208BF062203D0704700207047DB
:1021C8000022C2EBC20203EB8203181D70470122F2
:1021D800F7E70222F5E70322F3E70422F1E70522F5
:1021E800EFE700BF10B5044608212FF0DFFC2046BA
:1021F80010BD00BF10B5044608212FF0D7FC2046BB
:1022080010BD00BF10B504464FF484712FF0CEFC0A
:10221800204610BD10B50446024B036002F0B6FC20
:10222800204610BD583F04020246D0F8040108B504
:1022380007283DD850B3D2F8CC30994227D001288E
:102248002AD0D2F8D030994228D0022824D0D2F807
:10225800D430994224D003281ED0D2F8D8309942DD
:1022680020D0042818D0D2F8DC3099421CD0052898
:1022780012D0D2F8E030994218D007280CD1D2F801
:10228800E43000208B4208BF062301D008BD00239C
:102298003A3352F8230008BD002008BD0123F7E7B0
:1022A8000223F5E70323F3E70423F1E70523EFE728
:1022B80032F0AAFB70B5D0F8C8502DB38369044634
:1022C800202B0E464CD0012D1ED0636B202B4DD0F9
:1022D800022D19D0236D202B50D0032D14D0E36E7E
:1022E800202B13D0042D0FD0D4F88830202B1AD0EF
:1022F800052D09D0D4F8A430202B1DD0062D03D0ED
:10230800D4F8C030202B20D0002070BD3146206F7B
:1023180033F0CBFB0028E5D10320C0EBC00004EB71
:102328008004201D70BD3146D4F88C0033F0BDFB0D
:102338000028DDD10420F0E73146D4F8A80033F0B6
:10234800B4FB0028DAD10520E7E73146D4F8C40009
:1023580033F0ABFB03460020002BD6D10620DCE788
:10236800C06933F0A2FB0028ADD1D6E73146A06B97
:1023780033F09BFB0028ABD10120CEE73146606DDE
:1023880033F093FB0028A8D10220C6E72DE9F843D3
:102398008468061D64B30F469146B04665694A468F
:1023A800A94528BF2A4622B13946206933F084FA64
:1023B80008B9A5EB09000028D4E90232AABFA04653
:1023C80014461C46002CE9D1464511D0D8F81440D3
:1023D8004A46A14528BF22462AB13846D8F81010E7
:1023E80033F06AFA08B9A9EB04000028A8BF4646EA
:1023F8003046BDE8F88300BF2DE9F04F83B0019067
:10240800002800F00E81019BD3F80C80B8F1000F72
:1024180000F0EF80D8F80C90B9F1000F00F0CF80F1
:10242800D9F80CA0BAF1000F00F0AF80DAF80C4030
:10243800002C00F09080E568002D75D0EE68002E25
:102448005BD0F768002F3DD0FA6802B3D0680092DD
:10245800FFF7D2FF009A106902F118018842D2F8FA
:1024680008B00DD0916901312FF0A0FB009A2C2102
:1024780010462FF09BFBBBF1000F08D05A46E5E74A
:102488002C2110462FF092FBBBF1000FF6D13869D2
:1024980007F118029042D7F808B00CD0B969013199
:1024A8002FF084FB2C2138462FF080FBBBF1000F66
:1024B80008D05F46C8E72C2138462FF077FBBBF1E0
:1024C800000FF6D1306906F118039842D6F808B023
:1024D8000CD0B16901312FF069FB2C2130462FF067
:1024E80065FBBBF1000F08D05E46AAE72C213046F9
:1024F8002FF05CFBBBF1000FF6D1286905F118033A
:102508009842AE680AD0A96901312FF04FFB2C21FF
:1025180028462FF04BFB3EB135468FE72C21284645
:102528002FF044FB002EF7D1206904F118039842DC
:10253800A5680AD0A16901312FF038FB2C2120466B
:102548002FF034FB3DB12C4675E72C2120462FF0A7
:102558002DFB002DF7D1DAF810000AF11803984284
:10256800DAF808400BD0DAF8181001312FF01EFB0A
:102578002C2150462FF01AFB3CB1A24656E72C21DD
:1025880050462FF013FB002CF7D1D9F8100009F1B1
:1025980018039842D9F808400BD0D9F8181001311F
:1025A8002FF004FB2C2148462FF000FB3CB1A1463C
:1025B80036E72C2148462FF0F9FA002CF7D1D8F845
:1025C800100008F118039842D8F808400BD0D8F842
:1025D800181001312FF0EAFA2C2140462FF0E6FAC4
:1025E8003CB1A04616E72C2140462FF0DFFA002C1C
:1025F800F7D1019D286905F118039842AC680AD003
:10260800A96901312FF0D2FA2C2128462FF0CEFAF1
:102618003CB10194F7E628462C212FF0C7FA002C8C
:10262800F7D103B0BDE8F08F70B5C468061DA642A7
:1026380005460AD0A06A10B103685B68984720462F
:1026480030F0C8F986420446F4D1AC68CCB1E068F1
:10265800FFF7D2FE206904F118039842A6680AD051
:10266800A16901312FF0A2FA2C2120462FF09EFA01
:102678003EB13446EBE72C2120462FF097FA002E86
:10268800F7D1284670BD00BF70B5174D174E2B46C1
:10269800174A01E0013A24D01C4613F8011B00290F
:1026A800F8D1114A1349002003F0BEFE2246124910
:1026B800002003F0B9FE0D4A1049002003F0B4FED3
:1026C8000B4A0F49002003F0AFFE621B0D490020A2
:1026D80003F0AAFE321B0020BDE870400A4903F04F
:1026E800A3BE1C46DDE700BFB0563368B0768168EC
:1026F80000204E00B0F50302D4F50302FCF50302F6
:1027080020F6030240F6030260F603022DE9F04FBB
:102718008C6883B08A4680460192002C4CD0D2E95E
:102728000076D4E904B5AE42B14628BFA946B9F14E
:10273800000F05D04A465946384633F0BDF800B96F
:10274800701B00281BDBE3680BB11C46E9E7A246B7
:10275800B9F1000F11D04A463946584633F0ACF863
:1027680058B100284FF000034046B4BFC8E9003A0A
:10277800C8E9004303B0BDE8F08FA81BF1E7A368E0
:10278800002BE2D1DAF80C30A3420ED0204630F00C
:1027980025F9019BD0E904B5D3E90076AE42A246FB
:1027A800B146044628BFA946D2E700234046C8E9F7
:1027B800003403B0BDE8F08FDAF80C300C1DA342EA
:1027C800E4D1F2E72DE9F04F174689B006462C20F0
:1027D8000D462FF0DBFD3B6800F118085F68C0F874
:1027E8001080D3F800900F2F00F1100304460193D6
:1027F800069700F28480012F42D1424699F90030B1
:102808000376002306F1040BAB456761D3552F46C9
:10281800A36200F08380D4F814906B694A46994506
:1028280028BF1A46D4F810A02969CDF808A062B3C9
:102838005046CDE90423039133F03EF8DDE9031255
:10284800059B002804BFA9EB03000028C0F288807C
:1028580008465146039333F02FF8039BC8B100286C
:102868001BDB0298404503D0A16901312FF09EF986
:1028780020462C212FF09AF9384609B0BDE8F08F90
:102888004246002FBDD0404641E0A9EB0302002A92
:1028980066DBA3EB09000028E3DA3369AB427BD09F
:1028A800284630F097F8426903464A45029228BF05
:1028B8004A4601692AB10390504632F0FDFF039B56
:1028C80010B9029AA9EB020000287EDB3146019A72
:1028D80006A8FFF71BFFDDE90637002F71D0002B94
:1028E8005AD001203A4627465B46214630F07AF80E
:1028F800384673690133736109B0BDE8F08F00226F
:10290800184606A930F0CCF9069B2061A3613A4627
:10291800494633F0E2F8069F226972E77369002B93
:10292800D4D0D4F814903769D4F810A0D7E90403A8
:102938004B451A4628BF4A46002A4BD05146CDE996
:10294800022332F0B9FF039B0028A3EB090108BF5B
:1029580008460028029AB9DABD42C2D01D4627E0CF
:10296800F368AB42BDD0284630F038F80546D0E9C8
:10297800040399454A4628BF1A462AB1514602938C
:1029880032F09AFF029B08B9A3EB090000289DDAF0
:10299800EB68002BA5D12F46BB45A2D0D4F81490E4
:1029A8007D694A46A94528BF2A4632B1D4F810A005
:1029B8005046396932F080FF08B9A9EB0500C00F0D
:1029C80090E71F46236902934BE7EA68002AE7D09D
:1029D8001F4682E7A3EB0902002ABFF677AFBD4284
:1029E8003FF47FAF1D46E8E72FF0B7F92C212046CA
:1029F8002FF0DCF82FF093FC2FF0D8F92FF0D8F84F
:102A08002DE9F04FA44D95B02C68ACB901F07EFAD1
:102A1800064601F07FFA07463346CDE900749F4A1F
:102A28009F49A04802F0D0FB0446002800F06B81C3
:102A380001232B60FFF728FE002305229A4910AFD7
:102A480003C909AD10908DF8441008A83946CDE99E
:102A58000B550E978DF824300A930D930F928DF82D
:102A68004530FFF793FC85420DF138090BD0294614
:102A780008A804AACDF81090FFF7A4FE806A10B148
:102A880003685B68984708202FF080FCDDE90E8A10
:102A9800864A84490A9CC0E900210390002C00F072
:102AA8002681AB46D4E90406B245524628BF3246D1
:102AB8001AB1414632F000FF08B9A6EB0A00002817
:102AC800D4E9022103DB3AB1A3461446EAE711B17F
:102AD8000A461446E6E75C46AC4200F00981D4E9B0
:102AE8000416B245524628BF32461AB1404632F063
:102AF800E3FE08B9AAEB06000028C0F2F980039BA0
:102B0800B845A36204D01099404601312FF04EF821
:102B18003B460A2400266649664A0E97059107CA6D
:102B280003C339461A8008A822460F948DF84A60D4
:102B3800FFF72CFC854225D00A9CA846002C45D0DE
:102B4800D4E904060A2E4ED8002E40F0C280E4686C
:102B5800002CF5D1A84539D0D8E90414092C40F245
:102B6800E2800A22384632F0A7FEC4F10A0400289F
:102B780008BF2046002829DBD8F8280010B10368D0
:102B88005B68984708202FF001FCDDE90E8A4A4A65
:102B98000A9C05A9C0E900210390002C00F09B8045
:102BA800AB46D4E90406B245524628BF32461AB1AC
:102BB800414632F081FE08B9A6EB0A000028D4E9A4
:102BC80002210CDBFAB1A3461446EAE7414606AAFD
:102BD80008A8CDF81890FFF7F5FD8046CCE789B135
:102BE8000A461446DDE70A22394632F065FE0A3EF7
:102BF800002808BF30460028A9DBA046A468002C9E
:102C08009ED1A7E75C46AC4266D0D4E90416B2452B
:102C1800524628BF32461AB1404632F04DFE08B936
:102C2800AAEB0600002857DB039BB845A36204D033
:102C38001099404601312EF0B9FF08A800F076FD42
:102C480028B100201D4903F0EFFBFFF71DFD0B9C89
:102C5800AC420AD0A06A10B103685B689847204666
:102C68002FF0B8FEA8420446F4D10A9C74B3E06879
:102C7800FFF7C2FB206904F118039842A5681FD02A
:102C8800A16901312EF092FF2C2120462EF08EFFF3
:102C9800E5B12C46EBE700BF10C7012200204E002B
:102CA800B056336818C70122A0F60302103F040289
:102CB800304B1102A8F60302203F0402B4F60302C7
:102CC8002C2120462EF072FF002DE2D115B0BDE870
:102CD800F08F324688E72C46214608A807AACDF887
:102CE8001C90FFF76FFD0446DDF838809CE72C4602
:102CF800214608A805AACDF81490FFF763FD0446FD
:102D0800DDF83880FBE60F4803F0A0FE0E4803F01C
:102D18009DFE0E4803F09AFE20460B4915B0BDE80B
:102D2800F04F03F081BB002C3FF426AF224619E791
:102D380048462FF0D6FF08A8FFF776FC2EF038FF9C
:102D4800F9E7F5E7F4F4030284F6030218F5030241
:102D580038B50A4C0A4D204601F036FF00230948D1
:102D68002560A063C4F800312046C4F83C31064A07
:102D78000649BDE838402EF0A1BE00BF18C70122A1
:102D8800583F0402F43E0402000000221D22000203
:102D9800383070472DE9F047044688B001A811F093
:102DA8006DFDD4F80031002B00F01283226D032A48
:102DB80000F02282012B00F0C781E26E032A00F0A6
:102DC8001B82022B00F0C081D4F88820032A00F06F
:102DD8001382032B00F0B881D4F8A420032A00F052
:102DE8000B82042B00F0B081D4F8C020032A00F035
:102DF8000382052B00F0A881D4F8DC20032A00F018
:102E0800FB81062B00F0A081D4F8F830032B00F0EA
:102E1800F3810321AA4819F0BDFE0721A94819F03A
:102E2800B9FE01A80EF042FAD4F80031002B00F0E8
:102E3800CC82226D002A00F0D781012B00F0098294
:102E4800E26E002A00F0D081022B00F00282D4F852
:102E58008820002A00F0C881032B00F0FA81D4F8FA
:102E6800A420002A00F0C081042B00F0F281D4F8DD
:102E7800C020002A00F0B881052B00F0EA81D4F8C0
:102E8800DC20002A00F0B081062B00F0E281D4F8A3
:102E9800F830002B00F0A8810021894819F07AFE4B
:102EA8000721884819F076FE01A813F08DFAD4F8A6
:102EB8000031002B00F09B82226D092A00F08C81E2
:102EC800012B00F0A181E26E092A00F08581022B16
:102ED80000F09A81D4F88820092A00F07D81032B1C
:102EE80000F09281D4F8A420092A00F07581042BFF
:102EF80000F08A81D4F8C020092A00F06D81052BE2
:102F080000F08281D4F8DC20092A00F06581062BC4
:102F180000F07A81D4F8F830092B00F05D8109219E
:102F2800674819F037FE0721664819F033FE01A8F3
:102F380012F0C4FCD4F80031002B00F05582226D49
:102F4800042A00F04181012B00F01A82E26E042A63
:102F580000F03A81022B00F01382D4F88820042A6A
:102F680000F03281032B00F00B82D4F8A420042A4D
:102F780000F02A81042B00F00382D4F8C020042A30
:102F880000F02281052B00F0FB81D4F8DC20042A14
:102F980000F01A81062B00F0F381D4F8F830042BE6
:102FA80000F012810421464819F0F4FD0721454834
:102FB80019F0F0FD01A813F035FED4F80031002B0C
:102FC80000F00F82226D192A00F0F680012B00F024
:102FD800B281E26E192A00F0EF80022B00F0AB817B
:102FE800D4F88820192A00F0E780032B00F0A38189
:102FF800D4F8A420192A00F0DF80042B00F09B816C
:10300800D4F8C020192A00F0D780052B00F093814E
:10301800D4F8DC20192A00F0CF80062B00F08B8131
:10302800D4F8F830192B00F0C7801921244819F07A
:10303800B1FD0721234819F0ADFD01A813F00AFBE3
:10304800D4F80031002B00F0C981226D012A00F06C
:10305800AB80012B00F04A81E26E012A00F0A480C7
:10306800022B00F04381D4F88820012A00F09C80CC
:10307800032B00F03B81D4F8A420012A00F09480AF
:10308800042B00F03381D4F8C020012A00F08C8092
:10309800052B00F02B81D4F8DC20012A00F0848075
:1030A800062B00F02381D4F8F830012B7CD00121C5
:1030B800034819F06FFD0721024819F06BFD03E082
:1030C800D8F603020CF7030201A815F0AFFFD4F8F5
:1030D8000031002B00F07F81226D222A59D0012B6C
:1030E80000F0DC80E26E222A53D0022B00F0D6805A
:1030F800D4F88820222A4CD0032B00F0CF80D4F8B3
:10310800A420222A45D0042B00F0C880D4F8C0207F
:10311800222A3ED0052B00F0C180D4F8DC20222AD8
:1031280037D0062B00F0BA80D4F8F830222B30D0F4
:103138002221B04819F02EFD0721AF4819F02AFDC9
:10314800012008B0BDE8F08703F101084FF003093A
:10315800C3EBC30304EB830C0DF1040E0CF13C0527
:10316800D4F83C61BEE80F000FC59EE80700DFF801
:1031780094A204EB8607013685E80700CCF8509046
:10318800C4F80081C7F80491C7F820A1C4F83C61CD
:1031980047E69A4819F0FEFC2221994819F0FAFCF2
:1031A800012008B0BDE8F087944819F0F3FC01212C
:1031B800934819F0EFFC87E7904819F0EBFC1921C8
:1031C8008F4819F0E7FC38E78C4819F0E3FC042134
:1031D8008B4819F0DFFCEDE6884819F0DBFC092183
:1031E800874819F0D7FCA2E6844819F0D3FC0021DF
:1031F800834819F0CFFC57E6804819F0CBFC03212F
:103208007F4819F0C7FC0CE603F101084FF00909E3
:10321800C3EBC30304EB830C0DF1040E0CF13C0566
:10322800D4F83C61BEE80F000FC59EE80700DFF840
:10323800D8A104EB8607013685E80700CCF8509042
:10324800C4F80081C7F80491C7F820A1C4F83C610C
:103258006DE603F101084FF00009C3EBC30304EB6B
:10326800830C0DF1040E0CF13C05D4F83C61BEE86A
:103278000F000FC59EE80700DFF890A104EB860752
:10328800013685E80700CCF85090C4F80081C7F8EB
:103298000491C7F820A1C4F83C6105E603F10108D0
:1032A800C3EBC30304EB830E0DF1040C0EF13C05D4
:1032B800D4F83C61BCE80F000FC59CE807004FF04C
:1032C800220985E807000120DFF844A104EB8607FE
:1032D8000136CEF85090C4F80081C7F80491C7F8B9
:1032E80020A1C4F83C6108B0BDE8F08703F10108EB
:1032F8004FF00109C3EBC30304EB830C0DF1040E7B
:103308000CF13C05D4F83C61BEE80F000FC59EE8FF
:103318000700DFF800A104EB86074E4485E80700A4
:10332800CCF85090C4F80081C7F80491C7F820A1E0
:10333800C4F83C61C8E603F101084FF01909C3EB72
:10334800C30304EB830C0DF1040E0CF13C05D4F817
:103358003C61BEE80F000FC59EE80700DFF8B8A083
:1033680004EB8607013685E80700CCF85090C4F8CE
:103378000081C7F80491C7F820A1C4F83C615CE655
:1033880003F101084FF00409C3EBC30304EB830CFA
:103398000DF1040E0CF13C05D4F83C61BEE80F00B9
:1033A8000FC59EE80700DFF874A004EB8607013616
:1033B80085E80700CCF85090C4F80081C7F804915C
:1033C800C7F820A1C4F83C61F4E54FF0010842E7D2
:1033D8004FF00108BAE64FF0010861E74FF0010825
:1033E80086E74FF00108A8E74FF00108CAE74FF059
:1033F80001080BE7D8F603020CF7030220F70302D3
:1034080050F7030271D5010299D70102E5D40102F0
:10341800C9D80102CDD80102A1D90102A5D601025D
:1034280010B50446044B4068236018B1E168091AD6
:103438002EF0BCFB204610BDBC3F040210B504466C
:10344800064B4068236018B1E168091A2EF0AEFBFC
:10345800204610212EF0AAFB204610BDBC3F0402D6
:1034680070B59FED1D7A00250E4607EE905AF8EECE
:10347800E77A67EE877AFDEEE77A4FF0E00E17EE0F
:10348800904A324600214EF001E0C4EB04142401B6
:1034980007EE901AF8EEE77A67EE877AFDEEE77A9C
:1034A80017EE903A234403EB430310F803C0034498
:1034B80082F800C093F801C0033202F802CC9B786E
:1034C800013102F8013C0FF01DC80135E02D06F569
:1034D8002876CAD170BD00BF9224893F10B5044632
:1034E800006818B1A168091A2EF060FB204610BDCB
:1034F8002DE9F04F174689B006462C200D462EF0D0
:1035080045FF3B6800F118085F68C0F81080D3F8E1
:1035180000900F2F00F1100304460193069700F264
:103528008480012F42D1424699F900300376002366
:1035380006F1040BAB456761D3552F46A36200F033
:103548008380D4F814906B694A46994528BF1A4677
:10355800D4F810A02969CDF808A062B35046CDE987
:103568000423039132F0A8F9DDE90312059B002832
:1035780004BFA9EB03000028C0F288800846514622
:10358800039332F099F9039BC8B100281BDB02981A
:10359800404503D0A16901312EF008FB20462C21BB
:1035A8002EF004FB384609B0BDE8F08F4246002FE4
:1035B800BDD0404641E0A9EB0302002A66DBA3EB3D
:1035C80009000028E3DA3369AB427BD028462FF0A4
:1035D80001FA426903464A45029228BF4A460169F0
:1035E8002AB10390504632F067F9039B10B9029A4A
:1035F800A9EB020000287EDB3146019A06A8FFF7F6
:1036080085F8DDE90637002F71D0002B5AD001204C
:103618003A4627465B4621462FF0E4F93846736957
:103628000133736109B0BDE8F08F0022184606A97E
:103638002FF036FB069B2061A3613A46494632F0DB
:103648004CFA069F226972E77369002BD4D0D4F82C
:1036580014903769D4F810A0D7E904034B451A46EB
:1036680028BF4A46002A4BD05146CDE9022332F002
:1036780023F9039B0028A3EB090108BF084600288B
:10368800029AB9DABD42C2D01D4627E0F368AB42C0
:10369800BDD028462FF0A2F90546D0E90403994584
:1036A8004A4628BF1A462AB15146029332F004F915
:1036B800029B08B9A3EB090000289DDAEB68002BF0
:1036C800A5D12F46BB45A2D0D4F814907D694A46AF
:1036D800A94528BF2A4632B1D4F810A05046396906
:1036E80032F0EAF808B9A9EB0500C00F90E71F46C9
:1036F800236902934BE7EA68002AE7D01F4682E76E
:10370800A3EB0902002ABFF677AFBD423FF47FAFB3
:103718001D46E8E72EF021FB2C2120462EF046FA24
:103728002EF0FDFD2EF042FB2EF042FA2DE9F04F6F
:10373800064605240022A3B01F4B1D94B4681EAD95
:1037480006F1040A93E80300D0461C951E908DF8F4
:103758007C108DF87D20002C36D0D4E90407052F85
:1037680000F2A581002F40F0B381E468002CF4D169
:10377800C24529D0D8E90414042C40F2D881052286
:10378800284632F099F8C4F10504031E08BF234601
:10379800002B19DBD8F828305F68384601F0AAFBFF
:1037A80040BB064803F052F9054803F04FF90548B5
:1037B80003F04CF997E100BFA0F60302F4F403020A
:1037C80074F7030218F503021CAC4146304618AAE8
:1037D8001894FFF78DFE03461C989B6AA8425F6801
:1037E80003D01E9901312EF0E1F9384601F082FB31
:1037F8000028D6D00021384601F086FB80460021FB
:10380800384601F0CDFBD8F808308146002B00F08F
:10381800A8821B68032B40F35D810021384601F024
:103828000BFC384601F068FB4146024615A8FEF736
:1038380075FC002000212B464FF0000C4FF00A0EBB
:10384800BD4A1C95CDE90A0107CA03C3B4681A80AA
:10385800D346CDF830C0CDF874E08DF882C0002C86
:1038680000F046810196D4E904060A2E00F24B8145
:10387800002E40F05A81E468002CF4D1DA45019E0C
:1038880000F03681DBE90414092C40F21B820A227D
:10389800284632F011F8C4F10A04031E08BF234673
:1038A800002BC0F22581DBF8283049465A6818A851
:1038B8000AAB01931CACFEF73BFC1C98A84203D052
:1038C8001E9901312EF072F99C4BDFF898929C4CAE
:1038D800494618464FF4347232F0FFF800F5347355
:1038E800A34209F57079F3D1002296499348FFF76E
:1038F800B7FDD8F818209349B2F5133F28BF4FF405
:10390800133215A8FEF7A0FB002800F0E78100237A
:103918008D48C0F88430BFF34F8F43F6E078D0F875
:103928008030C3F34E34C3F3C90C64010CF1010EAB
:1039380063464EF001E004EA080141EA8372C0F8E8
:103948006C22013B0FF007C8203C14F1200FEDD189
:10395800BFF34F8FBFF36F8F02F08CF804463846E1
:103968000F4602F053F8002800F0B18102F082F807
:103978000023001B754A61EB0701C2E90001724888
:10398800C0F88430BFF34F8F43F6E07CD0F88070E6
:10399800C7F34E346401C7F3C90707F1010E4EF0AF
:1039A80001E03B4604EA0C0141EA8372C0F86C224C
:1039B800013B0FF007C8203C14F1200FEDD1BFF3F5
:1039C8004F8FBFF36F8F18A8FEF72CFB05900028C8
:1039D80000F0CA80DDE90A8400235D4A8DF87F3053
:1039E80092E803001093002200230727CDE90E2355
:1039F800ADF87C10B4EB08024FEA11411C951E90FB
:103A08008DF87E101D97049200F0B581514B9A42B3
:103A180000F2538210462EF0B9FCDDE90A84DDE994
:103A28001CB90746049BA0453B440E97109300F031
:103A38003582A4EB0803A3F1100E4FEA1E1E0EF107
:103A4800010E4EF001E04FF0000C029307EB0C045E
:103A580008EB0C030FCB0CF1100C84E80F000FF0EF
:103A68000BC8029BFB180293D6F808800F934446B4
:103A7800B8F1000F00F0B08006974F46B146CDF878
:103A88000CA0D4E90406BE42324628BF3A461AB111
:103A9800594631F011FF00B9F01B0028D4E9022182
:103AA80077DB002A00F02181A2461446E9E70522C7
:103AB800294631F001FF053F002808BF3846002895
:103AC800FFF653AEA046A468002C7FF446AE4FE63E
:103AD8003A46EDE7204802F0B9FF204802F0B6FF69
:103AE8001F4802F0B3FF0024204623B0BDE8F08F42
:103AF8001CAC0AAB594630460EAA0E940193FFF748
:103B0800F7FC8346CFE60A22294631F0D5FEA6F116
:103B18000A03002808BF18460028FFF6ACAEA346E3
:103B2800A468002C7FF49FAEA8E63246ECE7002C90
:103B38003FF430AE224623E6A8F60302B0CF26684B
:103B4800B0722968B02B226800ED00E0B0D20122E3
:103B580030F80302F0FFFF7FF4F40302C4F7030216
:103B680018F5030228232B68B84802F06FFFB848FD
:103B780002F06CFFB74802F069FF00240A98002899
:103B8800B2D00C99091A2EF011F8204623B0BDE8DE
:103B9800F08F002900F047810A46144671E74E4627
:103BA800B946039FC24500F06A81D8E904144C4520
:103BB800224628BF4A4622B1584631F07DFE0346C8
:103BC80008B9A9EB0403002BC0F25981D8F82800E2
:103BD80010B103685B68984710201CAC2EF0D6FB28
:103BE8000023002214930023CDE91223029B804670
:103BF800B3EB070900F0C380974B994500F25B814E
:103C080048462EF0C3FB0390029B00EB09049F4239
:103C18001290149400F045814A46394631F05DFF10
:103C280000238E4AC8E90133C8F800201394C8F865
:103C38000C30B9F1000F00F01F81874B994500F255
:103C4800388148462EF0A2FB034600EB090203998F
:103C5800C8F80C20A142C8F8043005D018464A46D6
:103C680031F03BFF03464B44C8F80830B4681C9B4E
:103C7800DDF874B00793002C00F0CB80CDE905780F
:103C8800D8461F46CB46B146CDF808A0D4E904066D
:103C9800B045424628BF32461AB1394631F00CFECB
:103CA80008B9A6EB08000028D4E9022104DB002AA1
:103CB80069D0A2461446E9E7002900F0BC800A460C
:103CC8001446E3E7002C3FF4EEAD2246E0E55F48FA
:103CD80002F0BCFE624802F0B9FE4BE75B4802F016
:103CE800B5FE604802F0B2FE44E74E46DDF80CA08F
:103CF800B946069FA2453FF46FAFD4E904134B457C
:103D08001A4628BF4A461AB35846039331F0D4FDE1
:103D1800039B0246E0B1002AFFF65EAF03974F46C9
:103D2800B1465646D8E90404BC42224628BF3A4662
:103D38001AB1594631F0C0FD00B9E01B0028D8E996
:103D4800022108DB002A3FF42AAF46469046E9E7FD
:103D5800A9EB0302DFE7002900F09A800A469046A3
:103D6800E0E73A4802F072FE3F4802F06FFE394839
:103D780002F06CFEB7E6B946AB46049F52E64846E9
:103D8800CDF80C9040E74E46DDF808A0D946059FCF
:103D9800C346DDF81880A2453CD0D4E9041AD345BF
:103DA8005A4628BF52468AB3079831F085FD024625
:103DB80060B3002A2EDB039BC4F828801BB1494658
:103DC80018462DF0F3FE1FB1384604992DF0EEFE8B
:103DD8001C98A84203D01E9901312DF0E7FE234B11
:103DE800D3E900012FF0D2FB9FED217A07EE900A6C
:103DF80067EE877AB7EEE77A1E4853EC172B02F086
:103E080025FE019801F0CEFD0446B7E6ABEB0A02A9
:103E1800CFE75446214630461CAC09AA0994FFF75F
:103E280067FB0446C7E751464E460C46B946DDF8DF
:103E38000CA0069F5EE751464E460C46D946059FA4
:103E4800C346DDF808A0DDF81880A4E7F4F40302FF
:103E580018F8030218F50302F0FFFF7FBC3F0402C5
:103E680004F80302ECF70302A8F70302B0D2012218
:103E78006F12833A38F803024A464B46E7E61CAC11
:103E88004146304612AA1294FFF732FB80469DE65F
:103E980031464E468846B946039F83E63B4602971D
:103EA800E2E50023184A1390C8E90023C8F80C304B
:103EB800DAE62EF0D9FE2EF0D7FE2EF0D5FE0EA8AB
:103EC800FFF70CFB20462EF00CFF0198FFF706FBCE
:103ED8002DF06EFEF6E7F8E720462EF002FF2DF0F3
:103EE80067FE1CAC12A8FFF7F9FA059B002BE6D079
:103EF800102140462DF05AFEE1E700230593F1E733
:103F08001CACDFE71CACF3E7BC3F04020048704779
:103F1800C83F040200487047400B0D00704700BFBF
:103F280010B5044604212DF041FE204610BD00BF07
:103F38002DE9F04784682DED028B06460F4691ED7A
:103F4800008AD1F8048000F1040A002C52D0D4ED84
:103F5800047AB4EEE78AF1EE10FA12D4B4EE678A66
:103F6800F1EE10FA02D1626990450AD3E2680025A1
:103F78005AB11446D4ED047AB4EEE78AF1EE10FA99
:103F8800ECD5A2680125002AF3D1A1463DBBB4EEC9
:103F9800E78AF1EE10FA16DDCA4533D0D9ED047A76
:103FA800B4EEE78AF1EE10FA2CD4B4EE678AF1EE9B
:103FB80010FA40D1D9F8143098452CBF4FF00008BA
:103FC8004FF0010820E0B4EE678AF1EE10FA02D152
:103FD80063699845E0D8BDEC028BBDE8F087F368CB
:103FE8009C42D9D020462EF0F9FCA146D0ED047AA7
:103FF8000446CCE7C36854465345F3D1D1464FF045
:10400800010801E04FF0010818202EF0BFF904461E
:1040180097E8030004F1100585E8030053464A4673
:10402800214640462EF0DEFCBDEC028B736901335D
:104038007361BDE8F0874FF00008E5E7002873D00A
:104048002DE9F04F074683B0D7F80C80B8F1000F80
:1040580060D0D8F80C90B9F1000F52D0D9F80CA064
:10406800BAF1000F44D0DAF80C40002C37D0D4F85D
:104078000CB0BBF1000F2BD0DBF80C60FEB1F5687B
:10408800B5B1EB686BB1D8680193FFF7D7FF019B17
:10409800182118469B6801932DF088FD019B002B81
:1040A800F1D12846AD6818212DF080FD002DE8D10A
:1040B8003046B66818212DF079FD002EDFD1DBF8E7
:1040C8000850182158462DF071FD0DB1AB46D3E7C5
:1040D8002046A46818212DF069FD002CC7D1DAF814
:1040E8000840182150462DF061FD0CB1A246BAE7F0
:1040F800D9F80840182148462DF058FD0CB1A146C2
:10410800ACE7D8F80840182140462DF04FFD0CB117
:10411800A0469EE73846BF6818212DF047FD002FBE
:1041280092D103B0BDE8F08F704700BF2DE9F04F82
:1041380000248BB005AD894693469846CDE90755CE
:104148008DF8144006940994002B00F02B81D9F8BF
:10415800003002A903EB84031B6804A803940293AC
:10416800FFF7E6FE01344445F1D1079CFDF7F0FF67
:104178000190019B984580F02081464604E0019B10
:1041880001369E4280F08380D9F80030D4ED047A5D
:1041980003EB8603D3ED006AF4EEE67AF1EE10FA4B
:1041A8004FEA860AEBD5DDF818C06169BCF1000F4B
:1041B80000F00A8164462F4694ED047AF4EEC77A3B
:1041C800F1EE10FA00F3C980F4EE477AF1EE10FA36
:1041D80040F0E2806369994200F2BF80C0F0DC8061
:1041E800D4E90223A2B192ED047AF4EEC77AF1EE93
:1041F80010FA00F3C980F4EE477AF1EE10FA03D111
:104208005069814200F2C08014469268002AEAD1BF
:104218009BB193ED047AF4EEC77AF1EE10FA00F14F
:10422800B880F4EE477AF1EE10FA03D15A69914258
:10423800C0F0AF80DB68002BEBD1079BA34200F0F6
:10424800C580BC4216D020462EF0C6FB0346204649
:104258001C4629462EF02AFC18212DF0A7FC099BA4
:10426800BC4203F1FF330993EDD1D9F80030534430
:10427800D3ED006A02A904A8CDED026A0396FFF700
:1042880057FE019B01369E42079CFFF47DAFB8F1B3
:10429800006F80F09680B8F1000F00F08B804FEA35
:1042A800081840462EF072F8A8F1100E4FEA1E1EAC
:1042B8000EF1010E4EF001E0002204460026002710
:1042C80000EB080100F1100343E9046743F8082CE8
:1042D80010330FF007C8DBF80000DBF80830CBE933
:1042E8000041CBF8081020B1191A2DF05FFCDBE96A
:1042F80000410F1B8C424FEA27171ED00026DDF81D
:104308001C8018E028462EF06BFB034693ED047AD8
:10431800B7EEC77A284684ED007B2EF061FB034692
:104328005B692846A3602EF05BFB0136BE4205465A
:1043380004F1100401D2A845E4D1069C4CB1E06810
:10434800FFF77CFE2046A46818212DF02FFC002CD6
:10435800F5D101200BB0BDE8F08FE468002C7FF4A4
:104368002BAF079B9F4285D1AF4283D16046FFF7B1
:1043780065FE0023CDE90635CDE90853D9F80030AC
:104388005344D3ED006A75E7D268002A7FF42BAF57
:104398003EE71F469B683BE72746A468002C7FF44E
:1043A8000BAFDEE7FDF7D4FE0190019B2C46002BF6
:1043B8007FF4E3AE002421468DE7B8F1006FFFF4E7
:1043C8006EAF07482EF056FC2F46CAE7AF427FF47F
:1043D80038AFCBE70698FFF731FE2DF0E9FB00BFB9
:1043E80054F803022DE9F04F2DED028B89B09DF8AA
:1043F80050A0002900F01D810E46896890460A6881
:104408008146002A1F46D8BF01243DDD531E042BD8
:1044180040F2208180EF5160930843F001E00B1DCA
:10442800B3EC045F26EF54690FF007C036EE103B7B
:1044380016EE104A03FB04F417EE103B03FB04F4DA
:1044480037EE103B900703FB04F422F003031BD064
:1044580001EB8301486800FB04F4581C824213DD19
:10446800886800FB04F4981C82420DDDC86800FBD4
:1044780004F4D81C824207DD0869043300FB04F405
:104488009A42C4BF4B695C43A74200F2A080002F48
:1044980000F0AE80D8E900329A4218BFC8F804305C
:1044A800314602A801F058FA039BB4F1005F9DED74
:1044B800028A009380F005810021002200230691E2
:1044C800CDE90423002C54D04FEA840B58462DF034
:1044D8005DFF002305460490012C40F8043B05EBE2
:1044E8000B03069309D0834206D00021ABF10402E6
:1044F800019331F00BFA019B184633780590012B94
:104508004ED0002B3DD0032B7CD0092B39D1DDEDCB
:10451800007A44F001E0B8EEE77A7368013B13F9DA
:10452800012F07EE902AF8EEE77A77EEC77A67EE62
:10453800887AE5EC017A0FF00FC004ACBAF1000FED
:1045480002D0204601F02CF93B4642462146484617
:10455800FFF7ECFD0446002875D0049818B10699B9
:10456800091A2DF023FB204609B0BDEC028BBDE8EB
:10457800F08F33780694032BDFD0092BDDD0012B85
:10458800DBD0554802F062FA307818F043FF014654
:10459800524802F05BFA524802F058FA0024DCE76D
:1045A800621E052A736803D91A1DAA1A082A54D844
:1045B800ABF1040E4FEA9E0E0EF1010E4EF001E033
:1045C80053F8042B45F8042B0FF007C0B5E7424811
:1045D80002F03CFA3946434802F038FA404802F003
:1045E80035FA0024204609B0BDEC028BBDE8F08FF7
:1045F800394802F02BFA3C4802F028FA384802F011
:1046080025FAEEE7DDED007A44F001E0B8EEE77A4E
:104618007368013B13F8012F07EE902AF8EE677ACA
:1046280077EEC77A67EE887AE5EC017A0FF00FC06B
:1046380083E7294802F00AFA2C4802F007FA2848CA
:1046480002F004FACDE7244802F000FA284802F004
:10465800FDF9A0E700230124FAE64FEA940E4FEA99
:104668000E1EAEF1100E4FEA1E1E0EF1010E4EF098
:1046780001E029461A46B2EC047FA1EC047F0FF052
:1046880007C0A10724F003023FF457AF03EB8201F0
:10469800086805EB82010860501C84424FEA8201D9
:1046A8007FF64BAF081D1E18366802322844A24216
:1046B8000660BFF442AF08310B441B6829440B6005
:1046C8003BE70C482EF0D6FA0498069B191A08B155
:1046D8002DF06CFA2DF06CFAF4F40302ECF80302F6
:1046E80018F50302A8F80302CCF8030288F80302BD
:1046F80018F9030254F803022DE9F0431E1E66DD83
:10470800002A144663DD4FF0000C0746DFED316ADE
:10471800DFED313A9FED314ADFED314A9FED315AF5
:10472800DFED315A9FED316A604602EB4203A2EB9E
:1047380082054FEA8308ED0001EB8303A3EB08022F
:10474800A3EB020EAEF10C0E294B4FEA9E0E03FBB3
:104758000EFE2EF0404E0EF1010E11464EF001E015
:104768000CEB4C033B4493F80090F0EE637A07EEB1
:10477800109AB8EEC77AE7EE267A67EE847AC1ED2A
:10478800007A93F80190F0EE647A07EE109AB8EE8A
:10479800C77AE7EE267A67EE857AC1ED017A93F853
:1047A8000290F0EE657A07EE109AB8EEC77AE7EE57
:1047B800267A67EE867A0C31033341ED017A0FF0E1
:1047C8002FC001308642A444A2EB0503B6D1BDE850
:1047D800F08300BF8180803BEC51F8BEEDBC8B407C
:1047E800D578E9BE6DDB8E403BDFCFBEE4388E4026
:1047F800ABAAAA2A2DE9F04FB3F1000A83B00190C1
:1048080040F3D180F7EE007A002A9146C7EE804A3D
:1048180040F3C98006EE101A002602EB420BD84678
:10482800B8EEC66B9FED615ADFED611A9FED612A04
:10483800DFED612A9FED613ADFED613A9FED614A54
:104848003746019B06EB46001918A8EB00045E4B9F
:10485800033C03FB04F40C9B01341A185B4B03EB79
:10486800000E5B4B03EB800C5A4B1D1872E013F1E2
:10487800800F80F28A806FF07F030928137007DCAD
:104888000B78CCED005A8EF8003092F900302B707E
:104898004B78F0EE625A07EE903AF8EEE77AE7EED8
:1048A800855A65EE835A24EEA57AB7EEC77AB8FE24
:1048B800477B37EE067BFDEEC77B17EE903A7F2BE2
:1048C80065DC13F1800F63DA6FF07F035370431CCC
:1048D800092B07DC4B78CCED015A8EF8013092F9A0
:1048E80001306B708B78F0EE635A07EE903AF8EE71
:1048F800E77AE7EE855A65EE845A24EEA57AB7EE94
:10490800C77AB8FE477B37EE067BFDEEC77B17EE0E
:10491800903A7F2B3EDC13F1800F3CDA6FF07F0377
:104928009370831C092B07DC8B78CCED025A8EF828
:10493800023092F90230AB70013C01F1030102F13F
:10494800030200F103000EF1030E0CF10C0C05F14B
:10495800030522D00B78F0EE615A07EE903AF8EE94
:10496800E77AE7EE855A65EE825A24EEA57AB7EE25
:10497800C77AB8FE477B37EE067BFDEEC77B17EE9E
:10498800903A7F2B7FF773AF7F235BB275E77F2366
:104998005BB29BE77F235BB2C2E70137BA45D844D5
:1049A8004E447FF44EAF03B0BDE8F08F8180803B6A
:1049B800EC51F8BEEDBC8B40D578E9BE6DDB8E407E
:1049C8003BDFCFBEE4388E40ABAAAAAA90C801222A
:1049D80068C8012258C8012238B500235648C0F8D3
:1049E8008430BFF34F8F43F6E075D0F88040C4F3AE
:1049F8004E3C4FEA4C1CC4F3C90404F1010E234693
:104A08004EF001E00CEA050141EA8372C0F86C221D
:104A1800013B0FF007C8ACF1200C1CF1200FECD1C2
:104A2800BFF34F8FBFF36F8F436913F480332BD1DC
:104A3800C0F88430BFF34F8F43F6E075D0F880405C
:104A48003D48C4F34E3C4FEA4C1CC4F3C90404F17E
:104A5800010E23464EF001E00CEA050141EA83729B
:104A6800C0F86022013B0FF007C8ACF1200C1CF124
:104A7800200FECD1BFF34F8F436943F48033436178
:104A8800BFF34F8FBFF36F8FFDF7BAFF00232A489C
:104A9800C0F88430BFF34F8F436923F480334361F8
:104AA800BFF34F8F43F6E075D0F88040C4F34E3C17
:104AB8004FEA4C1CC4F3C90404F1010E23464EF01E
:104AC80001E00CEA050141EA8372C0F87422013B57
:104AD8000FF007C8ACF1200C1CF1200FECD1BFF38C
:104AE8004F8FBFF36F8F0023C0F88430BFF34F8F11
:104AF80043F6E075D0F880400F48C4F34E3C4FEAC7
:104B08004C1CC4F3C90404F1010E23464EF001E025
:104B18000CEA050141EA8372C0F86C22013B0FF0F0
:104B280007C8ACF1200C1CF1200FECD1BFF34F8F5C
:104B3800BFF36F8F002038BD00ED00E008B5436873
:104B480033B1806820B117F0E5FB60B9012008BDDA
:104B58000A4801F07BFF0A4801F078FF094801F094
:104B680075FF002008BD054801F070FF064801F0F8
:104B78006DFF044801F06AFFF3E700BFF4F4030295
:104B88004CF9030218F503023CF9030238B50D4B42
:104B980085680446036035B1284617F0ABF8C42190
:104BA80028462DF003F8A06A18B1216B091A2CF0D9
:104BB800FDFFE06918B1616A091A2CF0F7FF204679
:104BC80038BD00BF604B1102002280EF506010B466
:104BD800084C80ED077FC0E90042C0E90222C0E925
:104BE8000522C0E90B225DF8044B027480F83420DA
:104BF800704700BF604B11022DE9F04F836893B0F6
:104C0800002B00F01B81D0E907318B42064606D005
:104C180053F8042B002A00F01D819942F8D1D6E9F7
:104C28000A318B4206D053F8042B002A00F0128177
:104C38009942F8D10021706815F09EF872680190C9
:104C48001368D31A1988082940F2AE8019890029F7
:104C580000F0AA805718515878580F44002800F0DF
:104C680017817968DD8804310F4415B153195559F6
:104C78001D44019B0024002B00F0AA80A1460DF1E1
:104C8800200B76E09288104602B198582B6898421B
:104C980080F0F5800130336855F820205B6805EB1B
:104CA8008008CDF8109030469044984704AA0146F1
:104CB800404617F083FF0246002857D1049BCDE9F0
:104CC80006B08DF82000002B50D05969202900F03B
:104CD800828000296BDBD12969DC784B0DF138081B
:104CE80053F82130CDF830800293002B00F0CD80AE
:104CF8001846039230F0FEFE0F288246059040F2D7
:104D0800D080039A0CA805A92DF0CAFF059B0C902A
:104D18000E935246029930F0E0FEDDF814A00C9B89
:104D2800CDF834A003F80A900C9B069843456FD041
:104D3800DDE90D12584542D0CDE90631089B0892AD
:104D480000283FD00E930C90CDF8349080F8009056
:104D58000C98404503D00E9901312CF027FF069896
:104D6800584503D0089901312CF020FF019BA3423C
:104D78002ED03B68FB1A1A880A2A15D95A899AB183
:104D8800B9583A4453185258A24272D9013453F8C8
:104D9800241003EB84035A580B449A1A11880429E7
:104DA8003FF670AF002071E700231B68FFDE0DF1AE
:104DB8003808CDF8308043464FF0000AB0E7CDE917
:104DC80006310892CDF830800DF138084046BBE72F
:104DD80013B0BDE8F08F9B690DF138080293CDF848
:104DE8003080002B5AD01846039230F083FE0F28EB
:104DF8008246039A059085D8012802D0B0B9434667
:104E08008EE7029B93F900308DF83830434687E7E8
:104E18000D9A32B1012A0BD0414630F05EFE0D9A50
:104E280006980023079283540C988DE7404670E754
:104E38009DF9383003700D9A0698F2E7204801F082
:104E480005FE204801F002FE1F4813B0BDE8F04FF0
:104E580001F0FCBD1A4801F0F9FD1C4801F0F6FD0F
:104E6800194801F0F3FD9F21194B1A4A1A481CF002
:104E780057FEB021194B1A4A1A481CF051FEB021AE
:104E8800164B194A17481CF04BFE18482DF0EFFE38
:104E9800B021124B164A13481CF042FE13482DF05D
:104EA800E6FE0128ADD04046BAF1000F7FF431AFDD
:104EB80081E706A82DF015FF2CF07AFE6C4B110245
:104EC800F4F40302D0F9030218F5030264F90302AB
:104ED80074F903027CF90302B0F90302E8F903024A
:104EE80054FB0302C4FA030224FC0302FCFC030281
:104EF800F4F90302007C704790F83400A0F109002F
:104F0800B0FA80F04009704708B50346406880B39E
:104F1800986870B300680268821AB2F800E0BEF1BF
:104F2800080F32D9128982B300EB020E82580EEBB9
:104F380002005EF8022012B34268043200EB020E4F
:104F48008258AEEB0202108806281ED9D288E2B138
:104F58000EEB02005EF80220825891420AD2D3E991
:104F680007031B1AB1EBA30F4FEAA30204D250F8B0
:104F7800210008BD002008BD05482DF07EFEB021A7
:104F8800044B054A05481CF0CBFD00231B68FFDED7
:104F980030FD0302E8F90302F4F90302C4FA03023C
:104FA80008B50346406880B3986870B30068026823
:104FB800821AB2F800E0BEF1080F32D9128982B322
:104FC80000EB020E82580EEB02005EF8022012B3CC
:104FD8004268043200EB020E8258AEEB02021088DF
:104FE80008281ED91289E2B10EEB02005EF80220F1
:104FF800825891420AD2D3E90A031B1AB1EBA30FD4
:105008004FEAA30204D250F8210008BD002008BDD1
:1050180005482DF032FEB021044B054A05481CF026
:105028007FFD00231B68FFDE30FD0302E8F9030261
:10503800F4F90302C4FA030208B50346406888B3CA
:10504800986878B300680268821AB2F800E0BEF186
:10505800080F33D912898AB300EB020E82580EEB7F
:1050680002005EF802201AB34268043200EB020E16
:105078008258AEEB0202108806281FD9D288EAB1FE
:105088000EEB02005EF80220825891420BD2D3E95F
:1050980007031B1AB1EBA30F4FEAA30205D250F87E
:1050A8002130986808BD002008BD06482DF0E5FDB0
:1050B800B021054B054A06481CF032FD00231B6849
:1050C800FFDE00BF30FD0302E8F90302F4F9030232
:1050D800C4FA0302002950D02DE9F84FD0E9015352
:1050E8005B1BB1EBA30F07460C46D0F8008031D903
:1050F8006FF06042A5EB0805A2EBA501A1424FEABB
:10510800A5035BD39C4204F1FF3A04EB030935D8AD
:105118005B00934228BF13464FEA830B58462DF095
:1051280035F90023012C06464351284436D0002186
:1051380004304FEA8A0230F0E9FB7DBBB8F1000F7A
:1051480038D106EB890206EB0B03C7E90062BB60A6
:10515800BDE8F88F00212B46013C43F8041B09D019
:1051680003EB8404641B043C1846224630F0CEFB53
:10517800034623447B60BDE8F88F70474A4528BF43
:105188004A464FEA820B58462DF000F9002306469E
:1051980043512844BAF1000FC9D1CEE741462A4607
:1051A800304630F099FBB968A1EB080140462CF075
:1051B800FDFCC6E7B968A1EB0801F7E701482DF047
:1051C80059FD00BF7CFD03022DE9F04F2DED048B46
:1051D8000024A04E85B0C6F884400D4604460392CC
:1051E800BFF34F8F726922F480327261BFF34F8F21
:1051F80043F6E078D6F88020C2F34E37C2F3C90CE4
:105208007F010CF1010E62464EF001E007EA08004A
:1052180040EA8271C6F87412013A0FF007C8203FBD
:1052280017F1200FEDD1BFF34F8FBFF36F8F00221F
:10523800C6F88420BFF34F8F43F6E078D6F8802075
:10524800844EC2F34E37C2F3C90C7F010CF1010E34
:1052580062464EF001E007EA080040EA8271C6F8AB
:105268006C12013A0FF007C8203F17F1200FEDD15B
:10527800BFF34F8FBFF36F8F774A12991360774A46
:105288001160774A591C511A0E2940F2E8819C4650
:105298001046BCEC101E93ED209E93ED303E93ED2E
:1052A800405E93ED507EA0EC101E9CED001E82ED3A
:1052B800209E80ED001E82ED303E82ED405E82ED44
:1052C800507E93F8607093F8616093F862E093F809
:1052D800631082F8607082F8616082F862E082F898
:1052E80063101A6899581A44511A08886260042889
:1052F80040F29C818988002900F098815258032A3D
:1053080040F09481226863619368129A2046A261F2
:105318009847139BE360002B00F0E581C4202DF033
:1053280035F8236805465B68204667689847002675
:105338000246E36839462846CDE9006616F07CFC4B
:105348002846A56016F054FE002840F0F0816368F6
:10535800002B00F0E581A068002800F09181026828
:105368001168511A0D88082D40F2FD81098900291C
:1053780000F0F98156185258B518B258002A00F0B2
:10538800EC816A680432A918AA588A1A1588062D69
:1053980040F2E981D288002A00F0E5818D188A5808
:1053A800266AA958E269B51AAD10A9422F4640F2FB
:1053B8006C81491B04F11C00FFF78CFE6368002B0D
:1053C80038D0A0680025002834D002681168511A26
:1053D8000E88082E40F2C781B1F808C0BCF1000F52
:1053E80000F0C18152F80C6002EB0C018F59314476
:1053F800002F00F0B2814E6804368F593144CE1B1D
:105408003788062F40F2AF81F688002E00F0AB8176
:105418008F593144C9598D4280F04181294616F08F
:1054280087FBE269636842F82500013513B1A0687B
:105438000028CAD1D4E90A250021A81A801081427F
:1054480004D202EB8102AA4200D0E262002B39D0DA
:10545800002534E000ED00E008C9012204C901225A
:10546800A0C8012202681168511A0E88082E40F25D
:105478007A810989002900F0768156580A449159A1
:105488003244002900F069815168043156580A44B1
:10549800911B0E88082E40F266810989002900F0C8
:1054A800628156580A449259AA420BD9294616F0E5
:1054B80081FBA26A636842F82500013513B1A06830
:1054C8000028CFD1D4E907218A4200F01F81D4E90E
:1054D8000A01884200F01A811268127884F8342090
:1054E800002B6AD0002530E002681368D31A1988A7
:1054F800082940F238811B89002B00F03481D1182B
:10550800D358CA18CB58002B00F0278153680433AE
:10551800D118D358CB1A1A88062A40F22481DB887E
:10552800002B00F02081CA18CB58D3589D4280F038
:105538001281E369002153F8253001359A695868CA
:1055480030F0E4F96368002B37D0A0680028CBD18D
:105558000546002831D003681A689A1A1188082964
:1055680040F201811289002A00F0FD809958134405
:105578005A580B44002A00F0F0805A6804329958AF
:1055880013445A1A1188082940F2ED801289002A1A
:1055980000F0E980995813445B589D420DD2A36AE4
:1055A800002153F8253001359A69586830F0AEF972
:1055B800636813B1A0680028CDD12046FFF71CFB13
:1055C80001226D494B69227413F4803328D1C1F844
:1055D8008430BFF34F8F43F6E076D1F88050C5F39F
:1055E8004E346401C5F3C90505F1010E2B464EF092
:1055F80001E004EA060040EA8372C1F86022013B38
:105608000FF007C8203C14F1200FEDD1BFF34F8FE6
:105618004B6943F480334B61BFF34F8FBFF36F8FF8
:10562800012005B0BDEC048BBDE8F08F534801F0B4
:105638000DFA62681368D31A1988042909D8002159
:1056480003224F4801F002FA4E4801F0FFF900200A
:10565800E7E79B881946002BF2D0D158F0E74FF0C6
:10566800640E4EF001E0591E11F8010F02F8010B0B
:105678000FF007C0002B7FF434AE1A686360FFDEBA
:105688000146D4E90726B71ABF10B942BFF49AAE4B
:1056980002EB810296423FF495AE226292E652F8FE
:1056A8000C10624450580A44002856D05068043000
:1056B80011580244511A0888082854D90989002920
:1056C80051D050580A441158E56AA26AAE1AB61069
:1056D800B14230467FF6B3AE891B04F12800FFF7CC
:1056E800F9FC6368B2E61A462846039916F032F8C0
:1056F800E06000287FF412AE204801F0A7F92248A4
:1057080001F0A4F91F4801F0A1F9A0E71B4801F036
:105718009DF91E4801F09AF91A4801F097F996E7A1
:10572800D4E9072191423FF485AE226282E613480C
:1057380001F08CF9164801F089F9124801F086F950
:10574800A468002C83D0204616F0D4FAC421204641
:105758002CF02CFA7BE70025FBE6B0210D4B0E4A16
:105768000E481CF0DDF900231B68FFDEC421284623
:105778002CF01CFA2CF01CFA00ED00E0F4F4030203
:1057880098FD030218F50302D8FD030210FE030278
:10579800F4FD0302E8F90302F4F90302C4FA030270
:1057A8002DE9F041D0E90065B5422DED028B00F0FE
:1057B800BC803746B7EC018ABD4200F0C680A5EB35
:1057C800070EAEF1040E4FEA9E0E0EF1010E3B4697
:1057D8004EF001E0F3EC017A88FE278A0FF007C04B
:1057E800344694ED000A30EE480A2DF0A9FBA4ECEB
:1057F800010AA542F5D12C1FA41BA108102C334681
:1058080001F1010140F29A8088084FEA001EAEF1CA
:10581800100E4FEA1E1E0EF1010E80EF50604EF082
:1058280001E03246B2EC045F06EF446D0FF007C0AA
:1058380036EE10EB37EE102B17EE10CBF0EE465A83
:1058480007EE90EA07EE10CA75EEA77A77EE877A28
:1058580007EE102A11F0030877EE877A69D021F055
:10586800030206EB82029446BCEC017A654577EEAA
:10587800877A5ED09CED007A02F10800854277EEC7
:10588800877A13D092ED027A02F10C00854277EE06
:10589800877A0BD092ED037A02F11000854277EEF9
:1058A800877A1CBF92ED047A77EE877AB7EE007A92
:1058B800082CC7EE273A20D9880801F0030813EE10
:1058C800902A4FEA001EAEF1100E4FEA1E1E0EF18E
:1058D800010EA4EE102B4EF001E093ED007F06FFC1
:1058E800546DA3EC047F0FF009C0B8F1000F1CD071
:1058F80021F0030106EB8106371DD6ED007A67EE2D
:10590800A37ABD42C6ED007A0FD0D6ED017A67EED4
:10591800A37A06F108039D42C6ED017A05D0D6EDBB
:10592800027A67EEA37AC6ED027ABDEC028BBDE877
:10593800F081B7EE007AC7EE273AC0E7BD42D6ED50
:10594800007ABC46B2D0324694E738EE480A2DF0C9
:10595800F7FA86ED000A4EE74FF07E5C00220B6BEB
:10596800C0F800C0012B426000D070474B6B6BB190
:105978009A685AB91A68116809B1526802605B6876
:105988001A68002AF1D05B6843607047D1ED037A4A
:10599800F5EE407AF1EE10FAE7D00B69C0ED007A27
:1059A800436070472DE9F041074684B0FCF7CCFB13
:1059B800D7E900329A4223D005460024124E03EB61
:1059C80004139A68214655F822004FEA04180290F9
:1059D80093ED007B30468DED007B01F037F83B6896
:1059E8002046434493ED000B1989B7EEC00B01F034
:1059F80021F8D7E900320134D21AB4EB221FDED3E2
:105A0800012004B0BDE8F0815C09040203681B684A
:105A1800184700BF08B50A490A481AF055FC40B9AA
:105A280008481AF0CDFB00200021074BC3E900010C
:105A380008BD2521054B064A06481CF071F800BF31
:105A48005C51110204D9012210C901227009040213
:105A5800B84E11028409040203793BB9044AD2E919
:105A68000031013341F10001C2E90031704700BF44
:105A780010C90122F0B50026154C85B001A92046B1
:105A88001AF0DEFB029D134B0020A3FB0535AD0C7D
:105A980033462A4601212DF00FFE84460A460E4F52
:105AA8002046D7E900740CFB04F402FB0744A7FB6B
:105AB8000C7C01A964441AF089FB2A463346314616
:105AC80001982DF0F9FDC01944EB010105B0F0BDB6
